{
  "address": "0xAa1074BcF6A8cA615d7aB7b6118F6B4e0c9a9974",
  "abi": [
    {
      "anonymous": false,
      "inputs": [
        {
          "indexed": true,
          "internalType": "address",
          "name": "owner",
          "type": "address"
        },
        {
          "indexed": true,
          "internalType": "address",
          "name": "approved",
          "type": "address"
        },
        {
          "indexed": true,
          "internalType": "uint256",
          "name": "tokenId",
          "type": "uint256"
        }
      ],
      "name": "Approval",
      "type": "event"
    },
    {
      "anonymous": false,
      "inputs": [
        {
          "indexed": true,
          "internalType": "address",
          "name": "owner",
          "type": "address"
        },
        {
          "indexed": true,
          "internalType": "address",
          "name": "operator",
          "type": "address"
        },
        {
          "indexed": false,
          "internalType": "bool",
          "name": "approved",
          "type": "bool"
        }
      ],
      "name": "ApprovalForAll",
      "type": "event"
    },
    {
      "anonymous": false,
      "inputs": [
        {
          "indexed": false,
          "internalType": "address",
          "name": "account",
          "type": "address"
        }
      ],
      "name": "Paused",
      "type": "event"
    },
    {
      "anonymous": false,
      "inputs": [
        {
          "indexed": true,
          "internalType": "bytes32",
          "name": "role",
          "type": "bytes32"
        },
        {
          "indexed": true,
          "internalType": "bytes32",
          "name": "previousAdminRole",
          "type": "bytes32"
        },
        {
          "indexed": true,
          "internalType": "bytes32",
          "name": "newAdminRole",
          "type": "bytes32"
        }
      ],
      "name": "RoleAdminChanged",
      "type": "event"
    },
    {
      "anonymous": false,
      "inputs": [
        {
          "indexed": true,
          "internalType": "bytes32",
          "name": "role",
          "type": "bytes32"
        },
        {
          "indexed": true,
          "internalType": "address",
          "name": "account",
          "type": "address"
        },
        {
          "indexed": true,
          "internalType": "address",
          "name": "sender",
          "type": "address"
        }
      ],
      "name": "RoleGranted",
      "type": "event"
    },
    {
      "anonymous": false,
      "inputs": [
        {
          "indexed": true,
          "internalType": "bytes32",
          "name": "role",
          "type": "bytes32"
        },
        {
          "indexed": true,
          "internalType": "address",
          "name": "account",
          "type": "address"
        },
        {
          "indexed": true,
          "internalType": "address",
          "name": "sender",
          "type": "address"
        }
      ],
      "name": "RoleRevoked",
      "type": "event"
    },
    {
      "anonymous": false,
      "inputs": [
        {
          "indexed": true,
          "internalType": "address",
          "name": "from",
          "type": "address"
        },
        {
          "indexed": true,
          "internalType": "address",
          "name": "to",
          "type": "address"
        },
        {
          "indexed": true,
          "internalType": "uint256",
          "name": "tokenId",
          "type": "uint256"
        }
      ],
      "name": "Transfer",
      "type": "event"
    },
    {
      "anonymous": false,
      "inputs": [
        {
          "indexed": false,
          "internalType": "address",
          "name": "account",
          "type": "address"
        }
      ],
      "name": "Unpaused",
      "type": "event"
    },
    {
      "inputs": [],
      "name": "DEFAULT_ADMIN_ROLE",
      "outputs": [
        {
          "internalType": "bytes32",
          "name": "",
          "type": "bytes32"
        }
      ],
      "stateMutability": "view",
      "type": "function"
    },
    {
      "inputs": [],
      "name": "MINTER_ROLE",
      "outputs": [
        {
          "internalType": "bytes32",
          "name": "",
          "type": "bytes32"
        }
      ],
      "stateMutability": "view",
      "type": "function"
    },
    {
      "inputs": [],
      "name": "PAUSE_ROLE",
      "outputs": [
        {
          "internalType": "bytes32",
          "name": "",
          "type": "bytes32"
        }
      ],
      "stateMutability": "view",
      "type": "function"
    },
    {
      "inputs": [
        {
          "internalType": "address",
          "name": "to",
          "type": "address"
        },
        {
          "internalType": "uint256",
          "name": "tokenId",
          "type": "uint256"
        }
      ],
      "name": "approve",
      "outputs": [],
      "stateMutability": "nonpayable",
      "type": "function"
    },
    {
      "inputs": [
        {
          "internalType": "address",
          "name": "owner",
          "type": "address"
        }
      ],
      "name": "balanceOf",
      "outputs": [
        {
          "internalType": "uint256",
          "name": "",
          "type": "uint256"
        }
      ],
      "stateMutability": "view",
      "type": "function"
    },
    {
      "inputs": [],
      "name": "baseTokenURI",
      "outputs": [
        {
          "internalType": "string",
          "name": "",
          "type": "string"
        }
      ],
      "stateMutability": "view",
      "type": "function"
    },
    {
      "inputs": [
        {
          "internalType": "uint256",
          "name": "tokenId",
          "type": "uint256"
        }
      ],
      "name": "exists",
      "outputs": [
        {
          "internalType": "bool",
          "name": "",
          "type": "bool"
        }
      ],
      "stateMutability": "view",
      "type": "function"
    },
    {
      "inputs": [
        {
          "internalType": "uint256",
          "name": "tokenId",
          "type": "uint256"
        }
      ],
      "name": "getApproved",
      "outputs": [
        {
          "internalType": "address",
          "name": "",
          "type": "address"
        }
      ],
      "stateMutability": "view",
      "type": "function"
    },
    {
      "inputs": [
        {
          "internalType": "bytes32",
          "name": "role",
          "type": "bytes32"
        }
      ],
      "name": "getRoleAdmin",
      "outputs": [
        {
          "internalType": "bytes32",
          "name": "",
          "type": "bytes32"
        }
      ],
      "stateMutability": "view",
      "type": "function"
    },
    {
      "inputs": [],
      "name": "getTrustedForwarder",
      "outputs": [
        {
          "internalType": "address",
          "name": "trustedForwarder",
          "type": "address"
        }
      ],
      "stateMutability": "view",
      "type": "function"
    },
    {
      "inputs": [
        {
          "internalType": "bytes32",
          "name": "role",
          "type": "bytes32"
        },
        {
          "internalType": "address",
          "name": "account",
          "type": "address"
        }
      ],
      "name": "grantRole",
      "outputs": [],
      "stateMutability": "nonpayable",
      "type": "function"
    },
    {
      "inputs": [
        {
          "internalType": "bytes32",
          "name": "role",
          "type": "bytes32"
        },
        {
          "internalType": "address",
          "name": "account",
          "type": "address"
        }
      ],
      "name": "hasRole",
      "outputs": [
        {
          "internalType": "bool",
          "name": "",
          "type": "bool"
        }
      ],
      "stateMutability": "view",
      "type": "function"
    },
    {
      "inputs": [
        {
          "internalType": "string",
          "name": "name_",
          "type": "string"
        },
        {
          "internalType": "string",
          "name": "symbol_",
          "type": "string"
        },
        {
          "internalType": "string",
          "name": "baseTokenURI_",
          "type": "string"
        },
        {
          "internalType": "address",
          "name": "trustedForwarder_",
          "type": "address"
        },
        {
          "internalType": "address",
          "name": "defaultAdmin_",
          "type": "address"
        }
      ],
      "name": "initialize",
      "outputs": [],
      "stateMutability": "nonpayable",
      "type": "function"
    },
    {
      "inputs": [
        {
          "internalType": "address",
          "name": "owner",
          "type": "address"
        },
        {
          "internalType": "address",
          "name": "operator",
          "type": "address"
        }
      ],
      "name": "isApprovedForAll",
      "outputs": [
        {
          "internalType": "bool",
          "name": "",
          "type": "bool"
        }
      ],
      "stateMutability": "view",
      "type": "function"
    },
    {
      "inputs": [
        {
          "internalType": "address",
          "name": "forwarder",
          "type": "address"
        }
      ],
      "name": "isTrustedForwarder",
      "outputs": [
        {
          "internalType": "bool",
          "name": "",
          "type": "bool"
        }
      ],
      "stateMutability": "view",
      "type": "function"
    },
    {
      "inputs": [
        {
          "internalType": "address",
          "name": "to",
          "type": "address"
        },
        {
          "internalType": "uint256",
          "name": "id",
          "type": "uint256"
        }
      ],
      "name": "mint",
      "outputs": [],
      "stateMutability": "nonpayable",
      "type": "function"
    },
    {
      "inputs": [
        {
          "internalType": "address",
          "name": "user",
          "type": "address"
        },
        {
          "internalType": "uint256",
          "name": "tokenId",
          "type": "uint256"
        },
        {
          "internalType": "bytes",
          "name": "metaData",
          "type": "bytes"
        }
      ],
      "name": "mint",
      "outputs": [],
      "stateMutability": "nonpayable",
      "type": "function"
    },
    {
      "inputs": [],
      "name": "name",
      "outputs": [
        {
          "internalType": "string",
          "name": "",
          "type": "string"
        }
      ],
      "stateMutability": "view",
      "type": "function"
    },
    {
      "inputs": [
        {
          "internalType": "uint256",
          "name": "tokenId",
          "type": "uint256"
        }
      ],
      "name": "ownerOf",
      "outputs": [
        {
          "internalType": "address",
          "name": "",
          "type": "address"
        }
      ],
      "stateMutability": "view",
      "type": "function"
    },
    {
      "inputs": [],
      "name": "pause",
      "outputs": [],
      "stateMutability": "nonpayable",
      "type": "function"
    },
    {
      "inputs": [],
      "name": "paused",
      "outputs": [
        {
          "internalType": "bool",
          "name": "",
          "type": "bool"
        }
      ],
      "stateMutability": "view",
      "type": "function"
    },
    {
      "inputs": [
        {
          "internalType": "bytes32",
          "name": "role",
          "type": "bytes32"
        },
        {
          "internalType": "address",
          "name": "account",
          "type": "address"
        }
      ],
      "name": "renounceRole",
      "outputs": [],
      "stateMutability": "nonpayable",
      "type": "function"
    },
    {
      "inputs": [
        {
          "internalType": "bytes32",
          "name": "role",
          "type": "bytes32"
        },
        {
          "internalType": "address",
          "name": "account",
          "type": "address"
        }
      ],
      "name": "revokeRole",
      "outputs": [],
      "stateMutability": "nonpayable",
      "type": "function"
    },
    {
      "inputs": [
        {
          "internalType": "address",
          "name": "from",
          "type": "address"
        },
        {
          "internalType": "address",
          "name": "to",
          "type": "address"
        },
        {
          "internalType": "uint256",
          "name": "tokenId",
          "type": "uint256"
        }
      ],
      "name": "safeTransferFrom",
      "outputs": [],
      "stateMutability": "nonpayable",
      "type": "function"
    },
    {
      "inputs": [
        {
          "internalType": "address",
          "name": "from",
          "type": "address"
        },
        {
          "internalType": "address",
          "name": "to",
          "type": "address"
        },
        {
          "internalType": "uint256",
          "name": "tokenId",
          "type": "uint256"
        },
        {
          "internalType": "bytes",
          "name": "_data",
          "type": "bytes"
        }
      ],
      "name": "safeTransferFrom",
      "outputs": [],
      "stateMutability": "nonpayable",
      "type": "function"
    },
    {
      "inputs": [
        {
          "internalType": "address",
          "name": "operator",
          "type": "address"
        },
        {
          "internalType": "bool",
          "name": "approved",
          "type": "bool"
        }
      ],
      "name": "setApprovalForAll",
      "outputs": [],
      "stateMutability": "nonpayable",
      "type": "function"
    },
    {
      "inputs": [
        {
          "internalType": "string",
          "name": "baseUri_",
          "type": "string"
        }
      ],
      "name": "setBaseUrl",
      "outputs": [],
      "stateMutability": "nonpayable",
      "type": "function"
    },
    {
      "inputs": [
        {
          "internalType": "address",
          "name": "trustedForwarder_",
          "type": "address"
        }
      ],
      "name": "setTrustedForwarder",
      "outputs": [],
      "stateMutability": "nonpayable",
      "type": "function"
    },
    {
      "inputs": [
        {
          "internalType": "bytes4",
          "name": "interfaceId",
          "type": "bytes4"
        }
      ],
      "name": "supportsInterface",
      "outputs": [
        {
          "internalType": "bool",
          "name": "",
          "type": "bool"
        }
      ],
      "stateMutability": "view",
      "type": "function"
    },
    {
      "inputs": [],
      "name": "symbol",
      "outputs": [
        {
          "internalType": "string",
          "name": "",
          "type": "string"
        }
      ],
      "stateMutability": "view",
      "type": "function"
    },
    {
      "inputs": [
        {
          "internalType": "uint256",
          "name": "tokenId",
          "type": "uint256"
        }
      ],
      "name": "tokenURI",
      "outputs": [
        {
          "internalType": "string",
          "name": "",
          "type": "string"
        }
      ],
      "stateMutability": "view",
      "type": "function"
    },
    {
      "inputs": [
        {
          "internalType": "address",
          "name": "from",
          "type": "address"
        },
        {
          "internalType": "address",
          "name": "to",
          "type": "address"
        },
        {
          "internalType": "uint256",
          "name": "tokenId",
          "type": "uint256"
        }
      ],
      "name": "transferFrom",
      "outputs": [],
      "stateMutability": "nonpayable",
      "type": "function"
    },
    {
      "inputs": [],
      "name": "unpause",
      "outputs": [],
      "stateMutability": "nonpayable",
      "type": "function"
    }
  ],
  "transactionHash": "0xcaff5b810d0990e89ec64781538c6dc0fdb59cf4d92a66fd2dbf4dcc866d562b",
  "args": [],
  "numDeployments": 1,
  "solcInputHash": "6b48e6b588e999663b82a35ee494a1bc",
  "bytecode": "0x608060405234801561001057600080fd5b50612cc3806100206000396000f3fe608060405234801561001057600080fd5b506004361061020b5760003560e01c806370a082311161012a578063c7c3268b116100bd578063d547741f1161008c578063d6d0faee11610071578063d6d0faee146104bd578063da742228146104d0578063e985e9c5146104e35761020b565b8063d547741f146104a2578063d547cfb7146104b55761020b565b8063c7c3268b14610444578063c87b56dd14610457578063ce1b815f1461046a578063d53913931461047b5761020b565b806395d89b41116100f957806395d89b411461040e578063a217fddf14610416578063a22cb4651461041e578063b88d4fde146104315761020b565b806370a08231146103a75780638456cb59146103ba57806391d14854146103c257806394d008ef146103fb5761020b565b8063389ed267116101a25780634f558e79116101715780634f558e791461034c578063572b6c051461035f5780635c975abb146103815780636352211e146103945761020b565b8063389ed267146102f75780633f4ba83a1461031e57806340c10f191461032657806342842e0e146103395761020b565b806323b872dd116101de57806323b872dd1461028d578063248a9ca3146102a05780632f2ff15d146102d157806336568abe146102e45761020b565b806301ffc9a71461021057806306fdde0314610238578063081812fc1461024d578063095ea7b314610278575b600080fd5b61022361021e3660046128c2565b61051f565b60405190151581526020015b60405180910390f35b610240610532565b60405161022f9190612af8565b61026061025b366004612888565b6105c5565b6040516001600160a01b03909116815260200161022f565b61028b610286366004612807565b610670565b005b61028b61029b366004612719565b6107b4565b6102c36102ae366004612888565b60009081526065602052604090206001015490565b60405190815260200161022f565b61028b6102df3660046128a0565b610842565b61028b6102f23660046128a0565b61086f565b6102c37f139c2898040ef16910dc9f44dc697df79363da767d8bc92f2e310312b816e46d81565b61028b61090b565b61028b610334366004612807565b61098d565b61028b610347366004612719565b610a6f565b61022361035a366004612888565b610a7a565b61022361036d3660046126cd565b60c9546001600160a01b0390811691161490565b61022360c954600160a01b900460ff1690565b6102606103a2366004612888565b610a99565b6102c36103b53660046126cd565b610b24565b61028b610bbe565b6102236103d03660046128a0565b60009182526065602090815260408084206001600160a01b0393909316845291905290205460ff1690565b61028b610409366004612830565b610c3e565b610240610d5d565b6102c3600081565b61028b61042c3660046127cd565b610d6c565b61028b61043f366004612754565b610d7e565b61028b6104523660046128fa565b610e0d565b610240610465366004612888565b610e73565b60c9546001600160a01b0316610260565b6102c37f9f2df0fed2c77648de5860a4cc508cd0818c85b8b8a1ab4ceeef8d981c8956a681565b61028b6104b03660046128a0565b610f5c565b610240610f84565b61028b6104cb36600461293a565b611013565b61028b6104de3660046126cd565b61113d565b6102236104f13660046126e7565b6001600160a01b039182166000908152609c6020908152604080832093909416825291909152205460ff1690565b600061052a826111c5565b90505b919050565b60606097805461054190612bb0565b80601f016020809104026020016040519081016040528092919081815260200182805461056d90612bb0565b80156105ba5780601f1061058f576101008083540402835291602001916105ba565b820191906000526020600020905b81548152906001019060200180831161059d57829003601f168201915b505050505090505b90565b6000818152609960205260408120546001600160a01b03166106545760405162461bcd60e51b815260206004820152602c60248201527f4552433732313a20617070726f76656420717565727920666f72206e6f6e657860448201527f697374656e7420746f6b656e000000000000000000000000000000000000000060648201526084015b60405180910390fd5b506000908152609b60205260409020546001600160a01b031690565b600061067b82610a99565b9050806001600160a01b0316836001600160a01b031614156107055760405162461bcd60e51b815260206004820152602160248201527f4552433732313a20617070726f76616c20746f2063757272656e74206f776e6560448201527f7200000000000000000000000000000000000000000000000000000000000000606482015260840161064b565b806001600160a01b0316610717611267565b6001600160a01b031614806107335750610733816104f1611267565b6107a55760405162461bcd60e51b815260206004820152603860248201527f4552433732313a20617070726f76652063616c6c6572206973206e6f74206f7760448201527f6e6572206e6f7220617070726f76656420666f7220616c6c0000000000000000606482015260840161064b565b6107af8383611276565b505050565b6107c56107bf611267565b826112f1565b6108375760405162461bcd60e51b815260206004820152603160248201527f4552433732313a207472616e736665722063616c6c6572206973206e6f74206f60448201527f776e6572206e6f7220617070726f766564000000000000000000000000000000606482015260840161064b565b6107af8383836113f9565b60008281526065602052604090206001015461086581610860611267565b6115d3565b6107af8383611653565b610877611267565b6001600160a01b0316816001600160a01b0316146108fd5760405162461bcd60e51b815260206004820152602f60248201527f416363657373436f6e74726f6c3a2063616e206f6e6c792072656e6f756e636560448201527f20726f6c657320666f722073656c660000000000000000000000000000000000606482015260840161064b565b61090782826116f6565b5050565b6109377f139c2898040ef16910dc9f44dc697df79363da767d8bc92f2e310312b816e46d6103d0611267565b6109835760405162461bcd60e51b815260206004820152601460248201527f6d757374206861766520706175736520726f6c65000000000000000000000000604482015260640161064b565b61098b611797565b565b6109a060c954600160a01b900460ff1690565b156109ed5760405162461bcd60e51b815260206004820152601060248201527f5061757361626c653a2070617573656400000000000000000000000000000000604482015260640161064b565b610a197f9f2df0fed2c77648de5860a4cc508cd0818c85b8b8a1ab4ceeef8d981c8956a66103d0611267565b610a655760405162461bcd60e51b815260206004820152601560248201527f6d7573742068617665206d696e74657220726f6c650000000000000000000000604482015260640161064b565b6109078282611864565b6107af8383836119b3565b6000818152609960205260408120546001600160a01b0316151561052a565b6000818152609960205260408120546001600160a01b03168061052a5760405162461bcd60e51b815260206004820152602960248201527f4552433732313a206f776e657220717565727920666f72206e6f6e657869737460448201527f656e7420746f6b656e0000000000000000000000000000000000000000000000606482015260840161064b565b60006001600160a01b038216610ba25760405162461bcd60e51b815260206004820152602a60248201527f4552433732313a2062616c616e636520717565727920666f7220746865207a6560448201527f726f206164647265737300000000000000000000000000000000000000000000606482015260840161064b565b506001600160a01b03166000908152609a602052604090205490565b610bea7f139c2898040ef16910dc9f44dc697df79363da767d8bc92f2e310312b816e46d6103d0611267565b610c365760405162461bcd60e51b815260206004820152601460248201527f6d757374206861766520706175736520726f6c65000000000000000000000000604482015260640161064b565b61098b6119ce565b610c5160c954600160a01b900460ff1690565b15610c9e5760405162461bcd60e51b815260206004820152601060248201527f5061757361626c653a2070617573656400000000000000000000000000000000604482015260640161064b565b610cca7f9f2df0fed2c77648de5860a4cc508cd0818c85b8b8a1ab4ceeef8d981c8956a66103d0611267565b610d165760405162461bcd60e51b815260206004820152601560248201527f6d7573742068617665206d696e74657220726f6c650000000000000000000000604482015260640161064b565b610d57848484848080601f016020809104026020016040519081016040528093929190818152602001838380828437600092019190915250611a8592505050565b50505050565b60606098805461054190612bb0565b610907610d77611267565b8383611b0e565b610d8f610d89611267565b836112f1565b610e015760405162461bcd60e51b815260206004820152603160248201527f4552433732313a207472616e736665722063616c6c6572206973206e6f74206f60448201527f776e6572206e6f7220617070726f766564000000000000000000000000000000606482015260840161064b565b610d5784848484611bdd565b610e1a60006103d0611267565b610e665760405162461bcd60e51b815260206004820152601460248201527f6d75737420686176652061646d696e20726f6c65000000000000000000000000604482015260640161064b565b6107af61012d83836124cd565b6000818152609960205260409020546060906001600160a01b0316610f005760405162461bcd60e51b815260206004820152602f60248201527f4552433732314d657461646174613a2055524920717565727920666f72206e6f60448201527f6e6578697374656e7420746f6b656e0000000000000000000000000000000000606482015260840161064b565b6000610f0a611c66565b90506000815111610f2a5760405180602001604052806000815250610f55565b80610f3484611c76565b604051602001610f45929190612a0c565b6040516020818303038152906040525b9392505050565b600082815260656020526040902060010154610f7a81610860611267565b6107af83836116f6565b61012d8054610f9290612bb0565b80601f0160208091040260200160405190810160405280929190818152602001828054610fbe90612bb0565b801561100b5780601f10610fe05761010080835404028352916020019161100b565b820191906000526020600020905b815481529060010190602001808311610fee57829003601f168201915b505050505081565b600054610100900460ff1661102e5760005460ff1615611032565b303b155b6110a45760405162461bcd60e51b815260206004820152602e60248201527f496e697469616c697a61626c653a20636f6e747261637420697320616c72656160448201527f647920696e697469616c697a6564000000000000000000000000000000000000606482015260840161064b565b600054610100900460ff161580156110cf576000805460ff1961ff0019909116610100171660011790555b6110d7611dc5565b6110df611dc5565b6110e7611dc5565b6110f18285611e42565b6110fb8686611f34565b60c9805473ffffffffffffffffffffffffffffffffffffffff19166001600160a01b0385161790558015611135576000805461ff00191690555b505050505050565b61114a60006103d0611267565b6111965760405162461bcd60e51b815260206004820152601460248201527f6d75737420686176652061646d696e20726f6c65000000000000000000000000604482015260640161064b565b60c9805473ffffffffffffffffffffffffffffffffffffffff19166001600160a01b0392909216919091179055565b60007fffffffff0000000000000000000000000000000000000000000000000000000082167f80ac58cd00000000000000000000000000000000000000000000000000000000148061125857507fffffffff0000000000000000000000000000000000000000000000000000000082167f5b5e139f00000000000000000000000000000000000000000000000000000000145b8061052a575061052a82611fd8565b600061127161206f565b905090565b6000818152609b60205260409020805473ffffffffffffffffffffffffffffffffffffffff19166001600160a01b03841690811790915581906112b882610a99565b6001600160a01b03167f8c5be1e5ebec7d5bd14f71427d1e84f3dd0314c0f7b2291e5b200ac8c7c3b92560405160405180910390a45050565b6000818152609960205260408120546001600160a01b031661137b5760405162461bcd60e51b815260206004820152602c60248201527f4552433732313a206f70657261746f7220717565727920666f72206e6f6e657860448201527f697374656e7420746f6b656e0000000000000000000000000000000000000000606482015260840161064b565b600061138683610a99565b9050806001600160a01b0316846001600160a01b031614806113c15750836001600160a01b03166113b6846105c5565b6001600160a01b0316145b806113f157506001600160a01b038082166000908152609c602090815260408083209388168352929052205460ff165b949350505050565b826001600160a01b031661140c82610a99565b6001600160a01b0316146114885760405162461bcd60e51b815260206004820152602960248201527f4552433732313a207472616e73666572206f6620746f6b656e2074686174206960448201527f73206e6f74206f776e0000000000000000000000000000000000000000000000606482015260840161064b565b6001600160a01b0382166115035760405162461bcd60e51b8152602060048201526024808201527f4552433732313a207472616e7366657220746f20746865207a65726f2061646460448201527f7265737300000000000000000000000000000000000000000000000000000000606482015260840161064b565b61150e600082611276565b6001600160a01b0383166000908152609a60205260408120805460019290611537908490612b56565b90915550506001600160a01b0382166000908152609a60205260408120805460019290611565908490612b0b565b9091555050600081815260996020526040808220805473ffffffffffffffffffffffffffffffffffffffff19166001600160a01b0386811691821790925591518493918716917fddf252ad1be2c89b69c2b068fc378daa952ba7f163c4a11628f55a4df523b3ef91a4505050565b60008281526065602090815260408083206001600160a01b038516845290915290205460ff1661090757611611816001600160a01b031660146120b9565b61161c8360206120b9565b60405160200161162d929190612a3b565b60408051601f198184030181529082905262461bcd60e51b825261064b91600401612af8565b60008281526065602090815260408083206001600160a01b038516845290915290205460ff166109075760008281526065602090815260408083206001600160a01b03851684529091529020805460ff191660011790556116b2611267565b6001600160a01b0316816001600160a01b0316837f2f8788117e7eff1d82e926ec794901d17c78024a50270940304540a733656f0d60405160405180910390a45050565b60008281526065602090815260408083206001600160a01b038516845290915290205460ff16156109075760008281526065602090815260408083206001600160a01b03851684529091529020805460ff19169055611753611267565b6001600160a01b0316816001600160a01b0316837ff6391f5c32d9c69d2a47ea670b442974b53935d1edc7fd64eb21e047a839171b60405160405180910390a45050565b6117aa60c954600160a01b900460ff1690565b6117f65760405162461bcd60e51b815260206004820152601460248201527f5061757361626c653a206e6f7420706175736564000000000000000000000000604482015260640161064b565b60c980547fffffffffffffffffffffff00ffffffffffffffffffffffffffffffffffffffff1690557f5db9ee0a495bf2e6ff9c91a7834c1ba4fdd244a5e8aa4e537bd38aeae4b073aa611847611267565b6040516001600160a01b03909116815260200160405180910390a1565b6001600160a01b0382166118ba5760405162461bcd60e51b815260206004820181905260248201527f4552433732313a206d696e7420746f20746865207a65726f2061646472657373604482015260640161064b565b6000818152609960205260409020546001600160a01b03161561191f5760405162461bcd60e51b815260206004820152601c60248201527f4552433732313a20746f6b656e20616c7265616479206d696e74656400000000604482015260640161064b565b6001600160a01b0382166000908152609a60205260408120805460019290611948908490612b0b565b9091555050600081815260996020526040808220805473ffffffffffffffffffffffffffffffffffffffff19166001600160a01b03861690811790915590518392907fddf252ad1be2c89b69c2b068fc378daa952ba7f163c4a11628f55a4df523b3ef908290a45050565b6107af83838360405180602001604052806000815250610d7e565b6119e160c954600160a01b900460ff1690565b15611a2e5760405162461bcd60e51b815260206004820152601060248201527f5061757361626c653a2070617573656400000000000000000000000000000000604482015260640161064b565b60c980547fffffffffffffffffffffff00ffffffffffffffffffffffffffffffffffffffff16600160a01b1790557f62e78cea01bee320cd4e420270b5ea74000d11b0c9f74754ebdbfc544b05a258611847611267565b611a8f8383611864565b611a9c6000848484612328565b6107af5760405162461bcd60e51b815260206004820152603260248201527f4552433732313a207472616e7366657220746f206e6f6e20455243373231526560448201527f63656976657220696d706c656d656e7465720000000000000000000000000000606482015260840161064b565b816001600160a01b0316836001600160a01b03161415611b705760405162461bcd60e51b815260206004820152601960248201527f4552433732313a20617070726f766520746f2063616c6c657200000000000000604482015260640161064b565b6001600160a01b038381166000818152609c6020908152604080832094871680845294825291829020805460ff191686151590811790915591519182527f17307eab39ab6107e8899845ad3d59bd9653f200f220920489ca2b5937696c31910160405180910390a3505050565b611be88484846113f9565b611bf484848484612328565b610d575760405162461bcd60e51b815260206004820152603260248201527f4552433732313a207472616e7366657220746f206e6f6e20455243373231526560448201527f63656976657220696d706c656d656e7465720000000000000000000000000000606482015260840161064b565b606061012d805461054190612bb0565b606081611cb7575060408051808201909152600181527f3000000000000000000000000000000000000000000000000000000000000000602082015261052d565b8160005b8115611ce15780611ccb81612beb565b9150611cda9050600a83612b23565b9150611cbb565b60008167ffffffffffffffff811115611d0a57634e487b7160e01b600052604160045260246000fd5b6040519080825280601f01601f191660200182016040528015611d34576020820181803683370190505b5090505b84156113f157611d49600183612b56565b9150611d56600a86612c06565b611d61906030612b0b565b60f81b818381518110611d8457634e487b7160e01b600052603260045260246000fd5b60200101907effffffffffffffffffffffffffffffffffffffffffffffffffffffffffffff1916908160001a905350611dbe600a86612b23565b9450611d38565b600054610100900460ff1661098b5760405162461bcd60e51b815260206004820152602b60248201527f496e697469616c697a61626c653a20636f6e7472616374206973206e6f74206960448201527f6e697469616c697a696e67000000000000000000000000000000000000000000606482015260840161064b565b600054610100900460ff16611e5d5760005460ff1615611e61565b303b155b611ed35760405162461bcd60e51b815260206004820152602e60248201527f496e697469616c697a61626c653a20636f6e747261637420697320616c72656160448201527f647920696e697469616c697a6564000000000000000000000000000000000000606482015260840161064b565b600054610100900460ff16158015611efe576000805460ff1961ff0019909116610100171660011790555b611f096000846124c3565b8151611f1d9061012d906020850190612551565b5080156107af576000805461ff0019169055505050565b600054610100900460ff16611fb15760405162461bcd60e51b815260206004820152602b60248201527f496e697469616c697a61626c653a20636f6e7472616374206973206e6f74206960448201527f6e697469616c697a696e67000000000000000000000000000000000000000000606482015260840161064b565b8151611fc4906097906020850190612551565b5080516107af906098906020840190612551565b60007fffffffff0000000000000000000000000000000000000000000000000000000082167f7965db0b00000000000000000000000000000000000000000000000000000000148061052a57507f01ffc9a7000000000000000000000000000000000000000000000000000000007fffffffff0000000000000000000000000000000000000000000000000000000083161461052a565b60c9546000906001600160a01b03163314156120b257507fffffffffffffffffffffffffffffffffffffffffffffffffffffffffffffffec36013560601c6105c2565b50336105c2565b606060006120c8836002612b37565b6120d3906002612b0b565b67ffffffffffffffff8111156120f957634e487b7160e01b600052604160045260246000fd5b6040519080825280601f01601f191660200182016040528015612123576020820181803683370190505b5090507f30000000000000000000000000000000000000000000000000000000000000008160008151811061216857634e487b7160e01b600052603260045260246000fd5b60200101907effffffffffffffffffffffffffffffffffffffffffffffffffffffffffffff1916908160001a9053507f7800000000000000000000000000000000000000000000000000000000000000816001815181106121d957634e487b7160e01b600052603260045260246000fd5b60200101907effffffffffffffffffffffffffffffffffffffffffffffffffffffffffffff1916908160001a9053506000612215846002612b37565b612220906001612b0b565b90505b60018111156122d9577f303132333435363738396162636465660000000000000000000000000000000085600f166010811061226f57634e487b7160e01b600052603260045260246000fd5b1a60f81b82828151811061229357634e487b7160e01b600052603260045260246000fd5b60200101907effffffffffffffffffffffffffffffffffffffffffffffffffffffffffffff1916908160001a90535060049490941c936122d281612b99565b9050612223565b508315610f555760405162461bcd60e51b815260206004820181905260248201527f537472696e67733a20686578206c656e67746820696e73756666696369656e74604482015260640161064b565b60006001600160a01b0384163b156124b857836001600160a01b031663150b7a02612351611267565b8786866040518563ffffffff1660e01b81526004016123739493929190612abc565b602060405180830381600087803b15801561238d57600080fd5b505af19250505080156123bd575060408051601f3d908101601f191682019092526123ba918101906128de565b60015b61246d573d8080156123eb576040519150601f19603f3d011682016040523d82523d6000602084013e6123f0565b606091505b5080516124655760405162461bcd60e51b815260206004820152603260248201527f4552433732313a207472616e7366657220746f206e6f6e20455243373231526560448201527f63656976657220696d706c656d656e7465720000000000000000000000000000606482015260840161064b565b805181602001fd5b7fffffffff00000000000000000000000000000000000000000000000000000000167f150b7a02000000000000000000000000000000000000000000000000000000001490506113f1565b506001949350505050565b6109078282611653565b8280546124d990612bb0565b90600052602060002090601f0160209004810192826124fb5760008555612541565b82601f106125145782800160ff19823516178555612541565b82800160010185558215612541579182015b82811115612541578235825591602001919060010190612526565b5061254d9291506125c5565b5090565b82805461255d90612bb0565b90600052602060002090601f01602090048101928261257f5760008555612541565b82601f1061259857805160ff1916838001178555612541565b82800160010185558215612541579182015b828111156125415782518255916020019190600101906125aa565b5b8082111561254d57600081556001016125c6565b600067ffffffffffffffff808411156125f5576125f5612c46565b604051601f8501601f19908116603f0116810190828211818310171561261d5761261d612c46565b8160405280935085815286868601111561263657600080fd5b858560208301376000602087830101525050509392505050565b80356001600160a01b038116811461052d57600080fd5b60008083601f840112612678578182fd5b50813567ffffffffffffffff81111561268f578182fd5b6020830191508360208285010111156126a757600080fd5b9250929050565b600082601f8301126126be578081fd5b610f55838335602085016125da565b6000602082840312156126de578081fd5b610f5582612650565b600080604083850312156126f9578081fd5b61270283612650565b915061271060208401612650565b90509250929050565b60008060006060848603121561272d578081fd5b61273684612650565b925061274460208501612650565b9150604084013590509250925092565b60008060008060808587031215612769578081fd5b61277285612650565b935061278060208601612650565b925060408501359150606085013567ffffffffffffffff8111156127a2578182fd5b8501601f810187136127b2578182fd5b6127c1878235602084016125da565b91505092959194509250565b600080604083850312156127df578182fd5b6127e883612650565b9150602083013580151581146127fc578182fd5b809150509250929050565b60008060408385031215612819578182fd5b61282283612650565b946020939093013593505050565b60008060008060608587031215612845578384fd5b61284e85612650565b935060208501359250604085013567ffffffffffffffff811115612870578283fd5b61287c87828801612667565b95989497509550505050565b600060208284031215612899578081fd5b5035919050565b600080604083850312156128b2578182fd5b8235915061271060208401612650565b6000602082840312156128d3578081fd5b8135610f5581612c5c565b6000602082840312156128ef578081fd5b8151610f5581612c5c565b6000806020838503121561290c578182fd5b823567ffffffffffffffff811115612922578283fd5b61292e85828601612667565b90969095509350505050565b600080600080600060a08688031215612951578283fd5b853567ffffffffffffffff80821115612968578485fd5b61297489838a016126ae565b96506020880135915080821115612989578485fd5b61299589838a016126ae565b955060408801359150808211156129aa578485fd5b506129b7888289016126ae565b9350506129c660608701612650565b91506129d460808701612650565b90509295509295909350565b600081518084526129f8816020860160208601612b6d565b601f01601f19169290920160200192915050565b60008351612a1e818460208801612b6d565b835190830190612a32818360208801612b6d565b01949350505050565b60007f416363657373436f6e74726f6c3a206163636f756e742000000000000000000082528351612a73816017850160208801612b6d565b7f206973206d697373696e6720726f6c65200000000000000000000000000000006017918401918201528351612ab0816028840160208801612b6d565b01602801949350505050565b60006001600160a01b03808716835280861660208401525083604083015260806060830152612aee60808301846129e0565b9695505050505050565b600060208252610f5560208301846129e0565b60008219821115612b1e57612b1e612c1a565b500190565b600082612b3257612b32612c30565b500490565b6000816000190483118215151615612b5157612b51612c1a565b500290565b600082821015612b6857612b68612c1a565b500390565b60005b83811015612b88578181015183820152602001612b70565b83811115610d575750506000910152565b600081612ba857612ba8612c1a565b506000190190565b600281046001821680612bc457607f821691505b60208210811415612be557634e487b7160e01b600052602260045260246000fd5b50919050565b6000600019821415612bff57612bff612c1a565b5060010190565b600082612c1557612c15612c30565b500690565b634e487b7160e01b600052601160045260246000fd5b634e487b7160e01b600052601260045260246000fd5b634e487b7160e01b600052604160045260246000fd5b7fffffffff0000000000000000000000000000000000000000000000000000000081168114612c8a57600080fd5b5056fea264697066735822122067bf2ca80b218baa0a44d387a417614ff497280baff4cce7391dd4732cb50a7264736f6c63430008020033",
  "devdoc": {
    "details": "This contract support meta transactions.This contract is final, don't inherit form it.",
    "kind": "dev",
    "methods": {
      "approve(address,uint256)": {
        "details": "See {IERC721-approve}."
      },
      "balanceOf(address)": {
        "details": "See {IERC721-balanceOf}."
      },
      "exists(uint256)": {
        "details": "We don't implement {IMintableERC721-exists} but this one is a nice to have."
      },
      "getApproved(uint256)": {
        "details": "See {IERC721-getApproved}."
      },
      "getRoleAdmin(bytes32)": {
        "details": "Returns the admin role that controls `role`. See {grantRole} and {revokeRole}. To change a role's admin, use {_setRoleAdmin}."
      },
      "grantRole(bytes32,address)": {
        "details": "Grants `role` to `account`. If `account` had not been already granted `role`, emits a {RoleGranted} event. Requirements: - the caller must have ``role``'s admin role."
      },
      "hasRole(bytes32,address)": {
        "details": "Returns `true` if `account` has been granted `role`."
      },
      "isApprovedForAll(address,address)": {
        "details": "See {IERC721-isApprovedForAll}."
      },
      "mint(address,uint256)": {
        "details": "Should be callable only by MintableERC721Predicate Make sure minting is done only by this function",
        "params": {
          "id": "tokenId being minted",
          "to": "user address for whom token is being minted"
        }
      },
      "mint(address,uint256,bytes)": {
        "details": "Should be callable only by MintableERC721Predicate Make sure minting is only done either by this function/ ",
        "params": {
          "metaData": "Associated token metadata, to be decoded & set using `setTokenMetadata` Note : If you're interested in taking token metadata from L2 to L1 during exit, you must implement this method",
          "tokenId": "tokenId being minted",
          "user": "user address for whom token is being minted"
        }
      },
      "name()": {
        "details": "See {IERC721Metadata-name}."
      },
      "ownerOf(uint256)": {
        "details": "See {IERC721-ownerOf}."
      },
      "pause()": {
        "details": "Puse the contract operation"
      },
      "paused()": {
        "details": "Returns true if the contract is paused, and false otherwise."
      },
      "renounceRole(bytes32,address)": {
        "details": "Revokes `role` from the calling account. Roles are often managed via {grantRole} and {revokeRole}: this function's purpose is to provide a mechanism for accounts to lose their privileges if they are compromised (such as when a trusted device is misplaced). If the calling account had been revoked `role`, emits a {RoleRevoked} event. Requirements: - the caller must be `account`."
      },
      "revokeRole(bytes32,address)": {
        "details": "Revokes `role` from `account`. If `account` had been granted `role`, emits a {RoleRevoked} event. Requirements: - the caller must have ``role``'s admin role."
      },
      "safeTransferFrom(address,address,uint256,bytes)": {
        "details": "See {IERC721-safeTransferFrom}."
      },
      "setApprovalForAll(address,bool)": {
        "details": "See {IERC721-setApprovalForAll}."
      },
      "setBaseUrl(string)": {
        "details": "Change the base url for token metadata",
        "params": {
          "baseUri_": "The new base Url."
        }
      },
      "setTrustedForwarder(address)": {
        "details": "Change the address of the trusted forwarder for meta-TX",
        "params": {
          "trustedForwarder_": "The new trustedForwarder"
        }
      },
      "supportsInterface(bytes4)": {
        "details": "See {IERC165-supportsInterface}. We must implement supportsInterface here because ERC721Upgradeable is not abstract."
      },
      "symbol()": {
        "details": "See {IERC721Metadata-symbol}."
      },
      "tokenURI(uint256)": {
        "details": "See {IERC721Metadata-tokenURI}."
      },
      "transferFrom(address,address,uint256)": {
        "details": "See {IERC721-transferFrom}."
      },
      "unpause()": {
        "details": "unpause the contract operation"
      }
    },
    "title": "This contract is a erc 721 compatible NFT token that represents an avatar and can be minted by a minter role.",
    "version": 1
  },
  "userdoc": {
    "kind": "user",
    "methods": {
      "mint(address,uint256)": {
        "notice": "called by predicate contract to mint tokens while withdrawing"
      },
      "mint(address,uint256,bytes)": {
        "notice": "called by predicate contract to mint tokens while withdrawing with metadata from L2"
      }
    },
    "version": 1
  },
  "storageLayout": {
    "storage": [
      {
        "astId": 7242,
        "contract": "src/solc_0.8/polygon/root/avatar/Avatar.sol:Avatar",
        "label": "_initialized",
        "offset": 0,
        "slot": "0",
        "type": "t_bool"
      },
      {
        "astId": 7245,
        "contract": "src/solc_0.8/polygon/root/avatar/Avatar.sol:Avatar",
        "label": "_initializing",
        "offset": 1,
        "slot": "0",
        "type": "t_bool"
      },
      {
        "astId": 8810,
        "contract": "src/solc_0.8/polygon/root/avatar/Avatar.sol:Avatar",
        "label": "__gap",
        "offset": 0,
        "slot": "1",
        "type": "t_array(t_uint256)50_storage"
      },
      {
        "astId": 9598,
        "contract": "src/solc_0.8/polygon/root/avatar/Avatar.sol:Avatar",
        "label": "__gap",
        "offset": 0,
        "slot": "51",
        "type": "t_array(t_uint256)50_storage"
      },
      {
        "astId": 6874,
        "contract": "src/solc_0.8/polygon/root/avatar/Avatar.sol:Avatar",
        "label": "_roles",
        "offset": 0,
        "slot": "101",
        "type": "t_mapping(t_bytes32,t_struct(RoleData)6869_storage)"
      },
      {
        "astId": 7161,
        "contract": "src/solc_0.8/polygon/root/avatar/Avatar.sol:Avatar",
        "label": "__gap",
        "offset": 0,
        "slot": "102",
        "type": "t_array(t_uint256)49_storage"
      },
      {
        "astId": 7529,
        "contract": "src/solc_0.8/polygon/root/avatar/Avatar.sol:Avatar",
        "label": "_name",
        "offset": 0,
        "slot": "151",
        "type": "t_string_storage"
      },
      {
        "astId": 7531,
        "contract": "src/solc_0.8/polygon/root/avatar/Avatar.sol:Avatar",
        "label": "_symbol",
        "offset": 0,
        "slot": "152",
        "type": "t_string_storage"
      },
      {
        "astId": 7535,
        "contract": "src/solc_0.8/polygon/root/avatar/Avatar.sol:Avatar",
        "label": "_owners",
        "offset": 0,
        "slot": "153",
        "type": "t_mapping(t_uint256,t_address)"
      },
      {
        "astId": 7539,
        "contract": "src/solc_0.8/polygon/root/avatar/Avatar.sol:Avatar",
        "label": "_balances",
        "offset": 0,
        "slot": "154",
        "type": "t_mapping(t_address,t_uint256)"
      },
      {
        "astId": 7543,
        "contract": "src/solc_0.8/polygon/root/avatar/Avatar.sol:Avatar",
        "label": "_tokenApprovals",
        "offset": 0,
        "slot": "155",
        "type": "t_mapping(t_uint256,t_address)"
      },
      {
        "astId": 7549,
        "contract": "src/solc_0.8/polygon/root/avatar/Avatar.sol:Avatar",
        "label": "_operatorApprovals",
        "offset": 0,
        "slot": "156",
        "type": "t_mapping(t_address,t_mapping(t_address,t_bool))"
      },
      {
        "astId": 8360,
        "contract": "src/solc_0.8/polygon/root/avatar/Avatar.sol:Avatar",
        "label": "__gap",
        "offset": 0,
        "slot": "157",
        "type": "t_array(t_uint256)44_storage"
      },
      {
        "astId": 25110,
        "contract": "src/solc_0.8/polygon/root/avatar/Avatar.sol:Avatar",
        "label": "_trustedForwarder",
        "offset": 0,
        "slot": "201",
        "type": "t_address"
      },
      {
        "astId": 7330,
        "contract": "src/solc_0.8/polygon/root/avatar/Avatar.sol:Avatar",
        "label": "_paused",
        "offset": 20,
        "slot": "201",
        "type": "t_bool"
      },
      {
        "astId": 7421,
        "contract": "src/solc_0.8/polygon/root/avatar/Avatar.sol:Avatar",
        "label": "__gap",
        "offset": 0,
        "slot": "202",
        "type": "t_array(t_uint256)49_storage"
      },
      {
        "astId": 19902,
        "contract": "src/solc_0.8/polygon/root/avatar/Avatar.sol:Avatar",
        "label": "__gap1",
        "offset": 0,
        "slot": "251",
        "type": "t_array(t_uint256)50_storage"
      },
      {
        "astId": 19909,
        "contract": "src/solc_0.8/polygon/root/avatar/Avatar.sol:Avatar",
        "label": "baseTokenURI",
        "offset": 0,
        "slot": "301",
        "type": "t_string_storage"
      },
      {
        "astId": 20058,
        "contract": "src/solc_0.8/polygon/root/avatar/Avatar.sol:Avatar",
        "label": "__gap2",
        "offset": 0,
        "slot": "302",
        "type": "t_array(t_uint256)50_storage"
      }
    ],
    "types": {
      "t_address": {
        "encoding": "inplace",
        "label": "address",
        "numberOfBytes": "20"
      },
      "t_array(t_uint256)44_storage": {
        "base": "t_uint256",
        "encoding": "inplace",
        "label": "uint256[44]",
        "numberOfBytes": "1408"
      },
      "t_array(t_uint256)49_storage": {
        "base": "t_uint256",
        "encoding": "inplace",
        "label": "uint256[49]",
        "numberOfBytes": "1568"
      },
      "t_array(t_uint256)50_storage": {
        "base": "t_uint256",
        "encoding": "inplace",
        "label": "uint256[50]",
        "numberOfBytes": "1600"
      },
      "t_bool": {
        "encoding": "inplace",
        "label": "bool",
        "numberOfBytes": "1"
      },
      "t_bytes32": {
        "encoding": "inplace",
        "label": "bytes32",
        "numberOfBytes": "32"
      },
      "t_mapping(t_address,t_bool)": {
        "encoding": "mapping",
        "key": "t_address",
        "label": "mapping(address => bool)",
        "numberOfBytes": "32",
        "value": "t_bool"
      },
      "t_mapping(t_address,t_mapping(t_address,t_bool))": {
        "encoding": "mapping",
        "key": "t_address",
        "label": "mapping(address => mapping(address => bool))",
        "numberOfBytes": "32",
        "value": "t_mapping(t_address,t_bool)"
      },
      "t_mapping(t_address,t_uint256)": {
        "encoding": "mapping",
        "key": "t_address",
        "label": "mapping(address => uint256)",
        "numberOfBytes": "32",
        "value": "t_uint256"
      },
      "t_mapping(t_bytes32,t_struct(RoleData)6869_storage)": {
        "encoding": "mapping",
        "key": "t_bytes32",
        "label": "mapping(bytes32 => struct AccessControlUpgradeable.RoleData)",
        "numberOfBytes": "32",
        "value": "t_struct(RoleData)6869_storage"
      },
      "t_mapping(t_uint256,t_address)": {
        "encoding": "mapping",
        "key": "t_uint256",
        "label": "mapping(uint256 => address)",
        "numberOfBytes": "32",
        "value": "t_address"
      },
      "t_string_storage": {
        "encoding": "bytes",
        "label": "string",
        "numberOfBytes": "32"
      },
      "t_struct(RoleData)6869_storage": {
        "encoding": "inplace",
        "label": "struct AccessControlUpgradeable.RoleData",
        "members": [
          {
            "astId": 6866,
            "contract": "src/solc_0.8/polygon/root/avatar/Avatar.sol:Avatar",
            "label": "members",
            "offset": 0,
            "slot": "0",
            "type": "t_mapping(t_address,t_bool)"
          },
          {
            "astId": 6868,
            "contract": "src/solc_0.8/polygon/root/avatar/Avatar.sol:Avatar",
            "label": "adminRole",
            "offset": 0,
            "slot": "1",
            "type": "t_bytes32"
          }
        ],
        "numberOfBytes": "64"
      },
      "t_uint256": {
        "encoding": "inplace",
        "label": "uint256",
        "numberOfBytes": "32"
      }
    }
  }
}